:1000000002C1000031C100002FC100002DC100005D
:100010002BC1000029C1000027C1000025C100003C
:1000200023C1000021C100001FC100001DC100004C
:100030001BC1000019C1000017C1000015C100005C
:1000400013C1000011C100000FC100000DC100006C
:100050000BC1000009C1000007C100000C9472111F
:1000600003C100000C9436110C940C11FDC000006B
:10007000FBC00000F9C00000F7C00000F5C00000A0
:10008000F3C00000F1C00000EFC00000EDC00000B0
:10009000EBC00000E9C00000E7C000000C94CD11E7
:1000A000E3C00000E1C00000DFC00000DDC00000D0
:1000B000DBC00000D9C00000D7C00000D5C00000E0
:1000C000D3C00000D1C00000CFC00000CDC00000F0
:1000D000CBC00000C9C00000C7C00000C5C0000000
:1000E000C3C0000000002100240027002A002D00CA
:1000F0003000330001010000040107010A01000083
:100100002200250028002B002E00310034000201BF
:100110000000050108010B0100002000230026005B
:1001200029002C002F00320000010000030106010D
:10013000090105050505070508080808020202026D
:100140000A0A080804040404010101010101010173
:100150000303030303030303040707070C0C0C0C3E
:100160000C0C0C0C02020202060606060606060627
:100170000B0B0B0B0B0B0B0B0102102020080810B4
:100180002040102040800201020108040201010207
:1001900004081020408080402010080402018004E0
:1001A000020180402010080402010804020101023B
:1001B0000408102040800102040810204080000044
:1001C0000A0B02090C0D0E080703040100000000D1
:1001D000000000000000000000000000000000001F
:1001E00000000000000000000000121110000000DC
:1001F00000000000000000000000000000000000FF
:1002000000000000B81311241FBECFEFD1E2DEBF03
:10021000CDBF00E00CBF25E0A4E2B3E001C01D9219
:10022000A037B207E1F713E0A0E0B2E0E6EDF7E2B5
:1002300000E00BBF02C007900D92A432B107D9F7BE
:1002400011E0C3E0D1E000E006C021970109802F52
:10025000FE010E94E113C230D10780E00807A9F730
:100260000E9405110C94E913CBCE0895CF92DF9232
:10027000EF92FF920F931F93CF93DF938C01DB01DB
:10028000D0E0C0E07A0181E0E81AF108452BA1F046
:10029000F80180819181FC01208131816D01FFEFA6
:1002A000CF1ADF0A6C91C801F9011995892B21F049
:1002B0002196A701D601E6CFCE01DF91CF911F9104
:1002C0000F91FF90EF90DF90CF90089508956FEF1A
:1002D0007FEF81E090E001C00895019709F0089553
:1002E0006F3F7F4FE1F7E3EDF4E01382128288EE77
:1002F00093E0A0E0B0E084839583A683B78388E38E
:1003000092E09183808385EC90E09587848784ECEC
:1003100090E09787868780EC90E0918B808B81ECD2
:1003200090E0938B828B82EC90E0958B848B86ECB3
:1003300090E0978B868B118E128E138E148ECFCFFA
:10034000FC01938D848D981720F4891B990B0197DC
:1003500008952FE330E0291B3109820F932F911D5F
:100360000895FC01918D828D981761F0A28DAE0FDA
:10037000BF2FB11D5D968C91928D9F5F9F73928F61
:1003800090E008958FEF9FEF0895FC01918D828D8D
:10039000981731F0828DE80FF11D858D90E008955A
:1003A0008FEF9FEF0895FC01218D30E0205C3F4FDF
:1003B000828DA901481B5109CA018F73992708959D
:1003C00083ED94E0F0DF21E0892B09F420E0822F17
:1003D0000895CF92DF92EF92FF921F93CF93DF9316
:1003E000EC016A017B01122F60E079E08DE390E07F
:1003F000A70196010E94BF132150310941095109FB
:100400005695479537952795E889F98982E0808345
:10041000C11481EED806E104F10421F0211580E138
:10042000380798F0E889F989108260E874E88EE16D
:1004300090E0A70196010E94BF13215031094109A4
:1004400051095695479537952795EC85FD8530835D
:10045000EE85FF852083188EEC89FD891083EA895B
:10046000FB89808180618083EA89FB898081886043
:100470008083EA89FB89808180688083EA89FB899F
:1004800080818F7D8083DF91CF911F91FF90EF90CE
:10049000DF90CF900895FC01A48DA80FB92FB11D56
:1004A000A35ABF4F2C91848D90E001968F73907862
:1004B000848FA689B7892C93A089B1898C91837088
:1004C00080648C93938D848D981308950288F389AA
:1004D000E02D80818F7D8083F8CF0F931F93CF9382
:1004E000DF93EC0181E0888F9B8D8C8D9817A9F0AC
:1004F000062F8B8D90E001968F739078182F8C8D3E
:1005000081131DC00FB607FCFACFE889F9898081F5
:1005100085FFF5CFCE01BFDFF2CFE889F989808171
:1005200085FFE6CF9FB7F894EE89FF896083E8895D
:10053000F98980818370806480839FBF10C0EB8DB8
:10054000EC0FFD2FF11DE35AFF4F00839FB7F89486
:100550001B8FEA89FB898081806280839FBF81E055
:1005600090E0DF91CF911F910F910895CF93DF938A
:10057000EC01888D811104C00DC00FB607FE0DC0BF
:10058000EA89FB89808185FDF8CFA889B9898C919A
:1005900086FFF3CFDF91CF910895808185FFF0CF63
:1005A000E889F989808185FFEBCFCE0174DFE8CF40
:1005B00080E090E0892B19F003DF811125C080E0F5
:1005C00090E0892B41F080E090E0892B21F00E949F
:1005D000000081111CC080E090E0892B41F080E098
:1005E00090E0892B21F00E940000811113C080E06F
:1005F00090E0892B41F080E090E0892B21F00E946F
:10060000000081110AC008950E940000D8CF0E9406
:100610000000E1CF0E940000EACF0E940000F3CF6B
:100620008150823108F075C0E82FF0E08827E45E41
:10063000FC4F8F4F0C94E113400344032E0334030B
:100640003A03890348034E0354035A0360036603C5
:100650006C037203890378037E038403E0E8F0E00F
:1006600080818F7780830895E0E8F0E080818F7D3E
:1006700080830895E0E8F0E08081877F808308959B
:1006800084B58F7784BD089584B58F7D84BD08952A
:10069000E0EBF0E080818F7780830895E0EBF0E07D
:1006A00080818F7D80830895E0E9F0E080818F77FD
:1006B00080830895E0E9F0E080818F7D8083089554
:1006C000E0E9F0E08081877F80830895E0EAF0E050
:1006D00080818F7780830895E0EAF0E080818F7DCC
:1006E00080830895E0EAF0E08081877F8083089529
:1006F000E0E2F1E080818F7780830895E0E2F1E02D
:1007000080818F7D80830895E0E2F1E08081877FA2
:1007100080830895CF93DF93282F30E0F901E254CE
:10072000FE4F8491F901E858FE4FD491F901EE5C37
:10073000FE4FC491CC23A9F081110EC0EC2FF0E044
:10074000EE0FFF1FE85EFE4FA591B491EC91ED23F3
:1007500029F490E080E007C063DFF0CF81E090E013
:1007600002C090E080E0DF91CF9108951F93CF9376
:10077000DF93282F30E0F901E254FE4F8491F90114
:10078000E858FE4F1491F901EE5CFE4FC491CC2362
:10079000A9F0D62F811116C0EC2FF0E0EE0FFF1F4D
:1007A000E250FF4FA591B4918FB7F894D1110CC0CE
:1007B0009C91E12FE095E923EC938FBFDF91CF91DE
:1007C0001F9108952DDFE8CFEC91E12BEC93F5CF4D
:1007D000CF93DF9390E0FC01E858FE4F24918E5CAC
:1007E0009E4FFC018491882319F190E0880F991F96
:1007F000FC01EC51FF4FA591B491FC01E250FF4F79
:10080000C591D491662349F06230A9F08FB7F8946E
:10081000EC91E22BEC938FBF0BC09FB7F8948C91B7
:10082000E22FE0958E238C938881E823E8839FBF95
:10083000DF91CF9108959FB7F8943C91822F8095D6
:1008400083238C93E881E22BE8839FBFF1CF7894D8
:1008500084B5826084BD84B5816084BD85B58260C5
:1008600085BD85B5816085BDEEE6F0E08081816063
:100870008083E1E8F0E01082808182608083808163
:1008800081608083E0E8F0E0808181608083E1EB3B
:10089000F0E0808184608083E0EBF0E08081816023
:1008A0008083E1E9F0E080818260808380818160E3
:1008B0008083E0E9F0E0808181608083E1EAF0E01C
:1008C000808182608083808181608083E0EAF0E0C3
:1008D000808181608083E1E2F1E0808182608083B9
:1008E000808181608083E0E2F1E0808181608083AB
:1008F000EAE7F0E080818460808380818260808389
:100900008081816080838081806880831092C100B3
:1009100008958230910538F0880F991F880F991F2C
:1009200005970197F1F708953FB7F8948091CF04A8
:100930009091D004A091D104B091D20426B5A89B87
:1009400005C02F3F19F00196A11DB11D3FBFBA2F61
:10095000A92F982F8827BC01CD01620F711D811D21
:10096000911D660F771F881F991F660F771F881FBD
:10097000991F08958F929F92AF92BF92CF92DF926C
:10098000EF92FF926B017C01CFDF4B015C011AC03B
:1009900021E0C21AD108E108F10888EE880E83E050
:1009A000981EA11CB11CC114D104E104F10451F042
:1009B000BBDF681979098A099B09683E7340810584
:1009C000910530F7C114D104E104F10461F7FF90FF
:1009D000EF90DF90CF90BF90AF909F908F90089551
:1009E0002FB7F8946091CB047091CC048091CD0422
:1009F0009091CE042FBF08956FEF7FEF81E090E0DC
:100A000032C0089583ED94E0CECC089583ED94E058
:100A1000A8CC0895CF92DF92EF92FF926A017B01FA
:100A200068EE73E080E090E0A5DF26E0B701A60164
:100A300083ED94E0CEDCFF90EF90DF90CF900895AF
:100A40000895FC011682178210861186128613867D
:100A50001486158616861786108A118A128A138ABA
:100A6000148A158A0895019709F008956F3F7F4F02
:100A7000E1F784E894E0E5DFF8CFB2CF08958F92F4
:100A80009F92AF92BF92CF92DF92EF92FF92CF935D
:100A9000DF93EC016A017B01F0DF4B015C01C80CC4
:100AA000D91CEA1CFB1CCE01E8DF681579058A0514
:100AB0009B0528F0C616D706E806F906A0F7DF91D1
:100AC000CF91FF90EF90DF90CF90BF90AF909F902D
:100AD0008F9008950F931F93CF93DF93EC016623BC
:100AE00061F0CE01CADF6A837B838C839D8381E0C2
:100AF000DF91CF911F910F910895BFDF0A811B8174
:100B00002C813D81DC01CB01801B910BA20BB30B2F
:100B100082339105A105B10520F742E350E060E082
:100B200070E0481B590B6A0B7B0B21E0CE01A7DF5D
:100B3000D8CF21E0A4CF0895FC01EE5BFF4F1082D7
:100B4000118212821382FC01128213821482158296
:100B5000411551056105710509F40895EADFFDCFDE
:100B6000FC01138212828CE292E091838083648381
:100B70004187228713860895089585EC8093BC00F1
:100B800010925204089585ED8093BC008091BC00C2
:100B900084FDFCCF109252040895811104C085E8B1
:100BA0008093BC00089585EC8093BC0008959093D9
:100BB0002B0480932A04089590932F0480932E048D
:100BC0000895AC0120912C04260F3327331F2132C6
:100BD0003105F4F4809152048430E1F490E00FC0C8
:100BE000E0912C04292F30E0E20FF32FF11D240FA8
:100BF000351FD9012C91E65FFB4F20839F5F96172D
:100C000078F380912C04680F60932C0480E00895A1
:100C100081E0089582E008950F93413208F051C0B9
:100C2000909152049111FCCF92E090935204009362
:100C300054049FEF909351041092760440937504EE
:100C400090E00AC0E92FF0E0DB01AE0FBF1F3C913E
:100C5000EB5AFB4F30839F5F9417A0F310927704F9
:100C6000880F90917704892B8093770480915304A7
:100C70008130B9F085EE8093BC00222321F0809171
:100C800052048230D1F3809151048F3FE9F080917A
:100C900051048032D9F080915104803381F084E096
:100CA00011C010925304809177048093BB0080910F
:100CB000BC0083FDF8CF85EC8093BC00DECF83E0E1
:100CC00001C081E00F91089580E0FCCF82E0FACF6F
:100CD0001092520481E0809354041092530461E016
:100CE00084E144DD61E085E141DDE9EBF0E0808114
:100CF0008E7F808380818D7F808388E48093B8009D
:100D000085E48093BC0008956FEF7FEF81E090E071
:100D1000CDC10895089508950895E0910704809144
:100D20000604E81730F4F0E0EA51FC4F808190E0CF
:100D300008958FEF9FEF0895909107048091060426
:100D4000981758F4E92FF0E0EA51FC4F208130E089
:100D50009F5F90930704C90108952FEF3FEFFBCFEA
:100D60008091060490910704891B990B0895CF92F6
:100D7000DF92EF92FF920F931F93CF93DF938C013B
:100D80006B017A018091E503882399F0D0E0C0E0FF
:100D9000CE15DF0588F4D801ED91FC910190F0812A
:100DA000E02DD601AC0FBD1F6C91C801199521969D
:100DB000EFCF642FC60105DFC701DF91CF911F91EF
:100DC0000F91FF90EF90DF90CF900895CF93DF9336
:100DD0001F92CDB7DEB7FC0169839091E50399239B
:100DE000F1F090910804903250F081E090E093830C
:100DF000828390E080E00F90DF91CF910895809101
:100E00000904E82FF0E0EB53FC4F998190838F5F4A
:100E1000809309048093080481E090E0ECCF61E0C6
:100E2000CE010196CEDE81E090E0E5CF0F934091B8
:100E30000804062F21E065EC73E08091C403ECDE2A
:100E400010920904109208041092E5030F9108957E
:100E500061E0ECCF089581E08093E5036093C403E3
:100E6000109209041092080408951F93CF93DF9302
:100E7000EC01162F6C8188E794E0EDDF6B85612B28
:100E8000E0917804F09179040190F081E02D88E7F9
:100E900094E0199588E794E0DBDFDF91CF911F9113
:100EA00008950F931F93CF938C01C62F6460DDDFED
:100EB00081E090E02EDD6C2F6B7FC801D6DF82E3EE
:100EC00090E027DDCF911F910F9108951F93CF934D
:100ED000DF93EC01162FC9DF612FCE01E2DFDF9136
:100EE000CF911F910895EF92FF920F931F93CF938D
:100EF0007C01C42F862F807F90E1699F800111249F
:100F0000682F642BC701E2DF6C2F602BC701DEDF87
:100F1000CF911F910F91FF90EF900895FC01668192
:100F2000262F246026836C6040E0DDCF0895CF93A8
:100F3000DF9300D000D01F921F92CDB7DEB728E01C
:100F4000E0E0F2E0DE01119601900D922A95E1F7C2
:100F5000FC012085241710F44FEF420FE42FF0E03E
:100F6000EE0FFF1FEC0FFD1F2181620F606840E054
:100F7000BADF28960FB6F894DEBF0FBECDBFDF9163
:100F8000CF91089540E062E0AEDF80ED97E0C1CC04
:100F9000089540E061E0A7DF80ED97E0BACC0895C6
:100FA00041E0A1DF81E090E0089528E0FC01238783
:100FB00060E05BCF0895CF93DF93EC01423018F0EF
:100FC0008D8188608D834887222319F0413009F490
:100FD00038C062E370E080E090E0CCDC6B85CE014D
:100FE00044DF68EE73E080E090E0C4DC60E3CE01B3
:100FF0006DDF84E991E18DDC60E3CE0167DF84E998
:1010000091E187DC60E3CE0161DF86E990E081DC7D
:1010100060E2CE015BDF6D81606240E0CE0163DFA4
:1010200084E08E83CE017ADFCE01B3DF82E08F834E
:1010300040E066E0CE0157DFCE01A4DFDF91CF9123
:1010400008958D8184608D83C4CF1092070410921F
:10105000060410920904109208043ADE8AE896E029
:10106000A6DD8BE896E0A8CD0895CF93DF93EC0141
:1010700088E794E0EADF1D8220E04A856985CE0199
:101080009ADFDF91CF910895F0CF0895FC0113828C
:10109000128288EE93E0A0E0B0E084839583A6837B
:1010A000B7838AE192E0918380830895019709F0E4
:1010B00008956F3F7F4FE1F788E794E0E7DFF8CFCF
:1010C00090E080E00895BC016E5F7F4FDC01ED9100
:1010D000FC910190F081E02D40E0199591E08111A3
:1010E00090E0892F0895CF92DF92EF92FF920F93B5
:1010F000CF93DF937C01C42F6901411108C0DF91B8
:10110000CF910F91FF90EF90DF90CF900895D62F61
:10111000D06883E58CBD1DBC60E0F701868526DBC9
:101120004FEF4C0FDEBD00000DB407FEFDCF8EB5B6
:101130000023B1F02FEF30E002C0220F331F0A95D9
:10114000E2F7DEBD00000DB407FEFDCF9EB5F6014F
:101150003081822F809583232923822B808301E095
:10116000041760F4F601E00FF11DDEBD00000DB4C0
:1011700007FEFDCF8EB580830F5FF2CFF601E00F43
:10118000F11D1EBC00000DB407FEFDCF8EB580839F
:1011900061E0F7018685EADAB2CF0F931F93CF9310
:1011A0008C01C62F83E58CBD1DBC60E0F8018685EF
:1011B000DDDAC068CEBD00000DB407FEFDCF8EB5F0
:1011C0001EBC00000DB407FEFDCFCEB561E0F801F6
:1011D0008685CCDA8C2FCF911F910F910895EF92D5
:1011E000FF920F931F93CF93DF937C01D62FC42FD1
:1011F000890183E58CBD1DBC60E0F7018685B6DA08
:10120000DEBD00000DB407FEFDCF8EB580E08C176B
:1012100060F4F801E80FF11D90819EBD00000DB44F
:1012200007FEFDCF9EB58F5FF2CF61E0F7018685A7
:101230009DDADF91CF911F910F91FF90EF9008956C
:101240000F931F93CF93DF93EC01062F142F83E5A9
:101250008CBD1DBC60E08E8589DA0EBD00000DB42A
:1012600007FEFDCF8EB51EBD00000DB407FEFDCFFD
:101270008EB561E08E857ADADF91CF911F910F9163
:101280000895CF93DF93EC0168E287DF982F937086
:10129000933029F0482F436068E2CE01D1DFDF911F
:1012A000CF9108950F931F93CF938C014FE062E08D
:1012B000C7DFC0E062E370E080E090E05BDB62E00B
:1012C000C8016BDF84FF03C0CF5FC33098F3CF91B9
:1012D0001F910F910895CF93DF93EC0161E08E850C
:1012E00077DA61E08E8542DA8F858F3F31F060E0FA
:1012F0006FDA8F850FDA892B59F1CE01D3DF40E009
:1013000064E2CE019DDF40E066E2CE0199DF46E275
:1013100068E4CE0195DF40E864E5CE0191DF49EA5B
:1013200066E5CE018DDF43E068E5CE0189DF48EE5A
:101330006AE5CE0185DF40E46AE2CE0181DF4DE35C
:1013400062E2CE017DDFCE019CDFDF91CF91089577
:1013500061E08F853DDA60E08F8508DA82E090E019
:10136000D8DA61E08F8502DA62E370E080E090E035
:1013700001DBC5CFCF92DF92EF92FF920F931F93C5
:10138000CF93DF938C016B01C42F790140E062E0C1
:1013900057DF44E06AE0C80153DF40E864E1C80178
:1013A0004FDF96014C2F62E1C80119DF43E062E094
:1013B000C80146DFC8E8D3E12097F9F06AE0C80128
:1013C000ECDE82FD02C02197F7CF40E062E0C80169
:1013D00037DF64E4C801E1DEF701808362E4C8011D
:1013E000DCDEF701818380E0DF91CF911F910F91C7
:1013F000FF90EF90DF90CF90089583E0F5CF0F93AB
:101400001F93CF93DF938C01D62FC42FC6DEC095D8
:101410004C2F48236D2FC80113DFDF91CF911F910F
:101420000F9108950F931F93CF93DF938C01D62FC5
:10143000C42FB3DE482F4C2B6D2FC80101DFDF9185
:10144000CF911F910F9108953F924F925F926F92AB
:101450007F928F929F92AF92BF92CF92DF92EF9244
:10146000FF920F931F93CF93DF931F921F92CDB7DD
:10147000DEB73C01962E142F2901A114B10409F402
:1014800039C0D5018C91382C330C330C330C330C10
:10149000380E40E062E0C301D3DE4FE768E0C301ED
:1014A000CFDE40E864E1C301CBDE9201402F62E170
:1014B000C30195DE432D6AE1C301C2DE492D62E01E
:1014C000C301BEDEBCE09B16B9F00F2EF0ED4F2E2F
:1014D000F7E05F2EF02D4114510499F068E0C3014C
:1014E0005CDE982F912369F480FD74C0E1E04E1A10
:1014F0005108F1CF80E0C7CF40E86AE1C30192DF35
:10150000E4CF452809F47BC06CE0C30146DE182F08
:10151000837109F076C0E114F104E1F0C114D10443
:10152000D9F064E1C30139DED6019C91981708F423
:101530006AC08C93082D9701482F62E1C301D3DD67
:1015400068E1C3012ADE8770A114B10431F0F5010E
:10155000808303C080E001C080E013FD56C0E11429
:10156000F10409F454C0C114D10409F452C09F8994
:10157000992309F450C0D6014C91413031F04230EA
:1015800038F1882331F087E026C08430C1F78FEF2F
:1015900022C042509E012F5F3F4FB701C301EADED8
:1015A000811119C0D601EC91F0E0D701AE0FBF1F39
:1015B00012972C919981291711F087E00CC0EE0D3C
:1015C000FF1D319720819A81291729F087E003C0F8
:1015D00087E001C083E00F900F90DF91CF911F91C2
:1015E0000F91FF90EF90DF90CF90BF90AF909F90C2
:1015F0008F907F906F905F904F903F90089583E021
:10160000EACF81E0E8CF84E0E6CF82E0E4CF80E07B
:10161000E2CF80E0E0CF80E0DECF8F92AF92BF924A
:10162000CF92DF92EF92FF920F931F93AF928C2C89
:10163000570168017901042F9B0140E36CE004DF4E
:101640000F901F910F91FF90EF90DF90CF90BF9080
:10165000AF908F9008958F929F92AF92CF92DF922A
:10166000EF92FF920F931F93CF93DF9300D01F92BF
:10167000CDB7DEB74C0180E589831A829E012D5FCC
:101680003F4F42E0BE016F5F7F4FC40173DED82E33
:10169000882389F08D2D0F900F900F900F90DF9180
:1016A000CF911F910F91FF90EF90DF90CF90AF906F
:1016B0009F908F900895A12CC12CF12CE12C10E06B
:1016C00000E030E020E044E0BE016F5F7F4FC401E6
:1016D000A4DF8330F9F2882311F0D82EDBCFDD248C
:1016E000D394D8CF2F923F924F925F926F927F9276
:1016F0008F929F92AF92BF92CF92DF92EF92FF9222
:101700000F931F93CF93DF93CDB7DEB72E970FB60E
:10171000F894DEBF0FBECDBF413508F095C14E87AE
:101720002B013C0140E86CE16ADE41E04C871D86FC
:101730005D85511180C16C85623091F06330F9F0A4
:10174000613011F015E081C183E989837E857723BB
:1017500051F1F2018081853048F5352F212C16C0DA
:1017600085E98983FE85FF2321F1F201808188309C
:1017700030F53D850F2EF3E02F2EF02D07C087E9C1
:1017800089833D850F2EF6E02F2EF02D822D880FB8
:10179000880F880FDE84D81AC2F03323C1F088E89E
:1017A0008B8393E015C03D85212CF0CF212C31E0B7
:1017B000EDCF3D850F2EF3E02F2EF02DE7CF0F2E2E
:1017C000F3E02F2EF02D31E0E1CFD12CE6CF92E0E7
:1017D0008D2DDD2094F08595859585955D2D2D2D9C
:1017E000277071F021E0820F69F4332321F06894AF
:1017F000DD24D3F8D50E3D8421C087E08D0DEBCFDD
:1018000020E0F1CF3323B1F043E0481708F0482F30
:1018100080E0841750F7622D680F7727771FFB0150
:10182000E40DF51D2181FE01E90FF11D21838F5F7C
:101830009F5FEFCF44E0E9CF332433943110B8C039
:101840007FE17D150CF445C08D2D87780CF463C0C5
:10185000B82E8A878D2DDD200CF461C08595859585
:1018600085958E5F982F9295907F9B0D9A83BB20D4
:1018700011F0BB24B394B80E88248394912C8C0E61
:101880009D1E880E911C99E0981B9B87CA844C2D45
:101890004295407F4C0D6AE1C301D2DCA12CFE01D0
:1018A0003A967F018E01055F1F4F94014B2DBE01BB
:1018B0006F5F7F4FC301B1DE182F823099F1811124
:1018C000C4C07FE17D150CF4B7CF6894DD24D5F852
:1018D000B5CF80E78A838B819C8189279D81892769
:1018E0009E8189278F839E01285F3F4F47E0BE017D
:1018F0006F5F7F4FC3013EDD182F8111A6C01A868E
:1019000083E08B874E0187E0880E911C0F2EF9E053
:10191000BF2EF02DBBCF8150886F8F5F99CF87E0AE
:101920008D0D9CCF6CE1C30138DC85FD8EC08F71BD
:1019300009F480E22D2DDD0C330B8217130609F01C
:101940000CF49DC0D82E87782D2D0D2C000C330B58
:1019500021503109277030783323F4F0ED2DDD204C
:1019600014F1E595E595E595882301F181E0E80F0F
:10197000EF5F81E090E0AC0102C0440F551F2A9553
:10198000E2F761E070E06C0F7D1F6E0F711DFB01CF
:101990008081842B808352CF21503109286F3F6F83
:1019A0002F5F3F4FDBCFE7E0ED0DDBCF80E0DFCFF8
:1019B0008B818838B9F092E08838B1F034E080E06B
:1019C0008317A0F4422D480F5527551FFA01DE0159
:1019D000A90FB11D11962C91E40DF51D21838F5F88
:1019E0009F5FEECF93E0E8CF33E0E9CF8B85833084
:1019F00009F047C08A85811146C09E012D5F3F4F87
:101A000041E0B401C301B6DC182F81111EC09B81D7
:101A1000F4018181981339C09C818281981337C069
:101A2000808182FF04C0FC85FF5FFC8781CEF201CC
:101A300083873D867DCE8C85880FFC858F0F8F5FD9
:101A4000F201808310E001C016E0812F2E960FB6C0
:101A5000F894DEBF0FBECDBFDF91CF911F910F91E4
:101A6000FF90EF90DF90CF90BF90AF909F908F90BE
:101A70007F906F905F904F903F902F90089515E06A
:101A8000E4CF11E0E2CF11E0E0CF17E0DECF17E0C6
:101A9000DCCF4F925F926F927F928F929F92AF9224
:101AA000CF92EF92FF920F931F93CF93DF931F92EA
:101AB0001F92CDB7DEB76A834115510531F1F901A7
:101AC0006081623020F149013A012C0140E86CE16B
:101AD00096DC87E08983A12CC12CCE0101967C0184
:101AE0008401930141E0BE016E5F7F4FC20195DD2D
:101AF00081110EC0F4019081923011F081E008C094
:101B00009981992329F081E003C084E001C084E039
:101B10000F900F90DF91CF911F910F91FF90EF9059
:101B2000CF90AF909F908F907F906F905F904F90ED
:101B300008959A01AB0166E2ACCF08950F931F930D
:101B4000CF93DF9300D0CDB7DEB78C0182E08B83DB
:101B500040E064E2C80174DB40E066E2C80170DB8B
:101B600046E268E4C8016CDBAE014D5F5F4FBE0129
:101B70006F5F7F4FC801DDDF882331F0823011F0C5
:101B800080E003C081E001C081E00F900F900F90D2
:101B9000DF91CF911F910F910895FC0180E192E0B8
:101BA00091838083668747870895CF93CFB7F89452
:101BB0008091C303811123C0E7E6F1E08491EDEA4F
:101BC000F1E09491E82FF0E0EE0FFF1FEC51FF4F92
:101BD000A591B491EC91E923D1F061E085E30E94F5
:101BE000E8038CB580618CBD8CB580648CBD61E0F0
:101BF00084E30E94E80361E083E30E94E8038091AC
:101C0000C3038F5F8093C303CFBFCF91089561E07B
:101C100085E30E94B603E1CF6FEF7FEF81E090E0B4
:101C200001C00895019709F008956F3F7F4FE1F7D4
:101C300024E044E16FE387EB93E00E94B00545E0C8
:101C400065E387EA93E0A9DFEFCFDF92EF92FF929F
:101C50000F931F93CF93DF93CDB7DEB7A1970FB646
:101C6000F894DEBF0FBECDBF7C01CB01BA01D22EEE
:101C700019A221E02D1520F48E010F5D1F4F0EC01B
:101C80000F2EFAE0DF2EF02DF7CFE95CD801EE93AE
:101C90008D01611571058105910571F02D2D30E0E3
:101CA00050E040E06CD5E62F622F732F842F952FE4
:101CB000EA305CF7E05DEACF1097F9F0FD010190A2
:101CC0000020E9F73197AF014A1B5B0BD701ED917B
:101CD000FC910280F381E02DB801C7011995A1960E
:101CE0000FB6F894DEBF0FBECDBFDF91CF911F912D
:101CF0000F91FF90EF90DF90089590E080E0EFCF9C
:101D00002115310549F4DC01ED91FC910190F08140
:101D1000E02D642F1995089598CF08959A01462FC4
:101D200050E070E060E0ECCF0895DC01ED91FC91B3
:101D30000280F381E02D42E050E066E472E0199504
:101D400008956115710581F0FB0101900020E9F70C
:101D50003197AF01461B570BDC01ED91FC910280DE
:101D6000F381E02D1995089590E080E008950F9398
:101D70001F93CF93DF93EC01E4DF8C01CE01D5DF1D
:101D8000800F911FDF91CF911F910F9108951F93A5
:101D9000CF93DF93EC01162F61E00E946A0569E49E
:101DA00072E083ED94E0CDDF4AE050E0612F83EDF7
:101DB00094E0B4DF60E572E083ED94E0D8DF42E3C5
:101DC00050E060E070E0CE010E949905DF91CF9174
:101DD0001F9108950F931F93CF93DF93FC012689E2
:101DE000222311F1062FEC010E940205882319F12C
:101DF000CE010E940205882301F1CE010E94060552
:101E0000182F8836E1F040F4883559F0833681F791
:101E1000602FCE01BCDF09C0813789F0863729F0F9
:101E2000E7CF1E8A13E601C013E6812FDF91CF9121
:101E30001F910F91089515E6F8CF15E6F6CF13E63A
:101E4000F4CF1F93CF93DF93EC01142F662379F027
:101E500081E08E8B60E0CE01BDDF833641F041E052
:101E600050E060E070E0CE010E949905F3CF1E8B38
:101E7000DF91CF911F9108950F931F93CF93DF931D
:101E8000D0E0C0E010E000E001C021968091A60300
:101E90008C171D060CF43AC067E572E083ED94E000
:101EA00066DF40E150E0FE01E85FFD4F608183EDB9
:101EB00094E034DF40E150E0FE01EA5DFC4F6081D8
:101EC00083ED94E02BDF83ED94E02FDF8091A60378
:101ED0008C171D06D1F66DE672E083ED94E047DFC6
:101EE00042E060E087EB93E022D869E772E087EB9D
:101EF00093E027DF60ED77E080E090E00E94BA0495
:101F000087EB93E046D801E010E0BFCF6BE872E0CA
:101F100083ED94E02CDF40E150E06CE083ED94E051
:101F2000FDDE40E150E06091260383ED94E0F6DEB3
:101F300083ED94E0FADE8091A603882331F0C80196
:101F4000DF91CF911F910F91089565E972E083EDC4
:101F500094E00DDF02E010E0F2CF1F93CF93DF9308
:101F600087EB93E022D887EB93E013D840E060E062
:101F700087EB93E00E94970762EA72E087EB93E0B9
:101F8000E0DE42E060E087EB93E00E94970760EBC1
:101F900072E087EB93E0D5DE10E013C068E472E0F6
:101FA00087EB93E0CEDECA5DDC4F40E150E0688114
:101FB00087EB93E0B3DE68E472E087EB93E0C1DE89
:101FC0001F5F8091A603181758F4C12FD0E0FE01BF
:101FD000EA5DFC4F8081803108F766EB72E0E0CF6C
:101FE00060ED77E080E090E00E94BA0487EB93E038
:101FF0000E94C907DF91CF911F9108951F93CF933E
:10200000DF9387EA93E09ADD811104C0DF91CF91DD
:102010001F91089587EA93E056D88823B9F368EBB7
:1020200072E083ED94E08DDE10E00EC063EB72E0B1
:1020300083ED94E086DEC955DC4F40E150E06B81D2
:1020400083ED94E06BDE1F5F8091A903181778F48D
:10205000C12FD0E0FE01E955FC4F8381FE01EA5D0E
:10206000FC4F8083803110F765EB72E0E1CF809305
:10207000A60381E090E0909325038093240387EAF0
:1020800093E0E9DA83ED94E050DE67DFBFCFCF93D2
:10209000DF9387EB93E00E94440887EB93E00E9474
:1020A000D50787EB93E00E94C90740E065E087EB26
:1020B00093E00E94970766EC72E087EB93E041DEC5
:1020C000D0E0C0E0C431D1059CF441E06C2F87EB37
:1020D00093E00E94970761ED72E087EB93E031DEB9
:1020E0006BE470E080E090E00E94BA042196EACFB1
:1020F00042E060E087EB93E00E94970763ED72E0B7
:1021000087EB93E01EDE43E064E087EB93E00E9400
:10211000970768EE72E087EB93E013DE68EE73E0FA
:1021200080E090E00E94BA0487EB93E00E94C90728
:10213000DF91CF91089562DF809124039091250370
:10214000019769F08091240390912503892B69F010
:1021500068EE73E080E090E00C94BA0408958CDEA1
:102160001092250310922403EDCF40E060E087EB4E
:1021700093E00E94970765EF72E087EB93E0E1DD63
:1021800042E060E087EB93E00E9497076DEF72E01A
:1021900087EB93E0D6DDDCCF48EB5BE060E070E0FE
:1021A00084E894E00E949C0540E855E260E070E01D
:1021B00084E894E00E940A0561E084E894E00E94CB
:1021C0006A05811114C041E060E084E894E039DEE2
:1021D00026E040E855E260E070E083ED94E00E9484
:1021E000E901E3DC87EA93E076D851CF089562E114
:1021F00073E083ED94E0A5DD4AE050E060E070E03C
:1022000084E894E00E949905DECF0E942704C4DF91
:1022100092DF0E94D802FCCF1F920F920FB60F924E
:1022200011240BB60F922F933F934F935F936F93AD
:102230007F938F939F93AF93BF93EF93FF9383ED20
:1022400094E00E944B02FF91EF91BF91AF919F915B
:102250008F917F916F915F914F913F912F910F904F
:102260000BBE0F900FBE0F901F9018951F920F92EC
:102270000FB60F9211240BB60F922F938F939F934B
:10228000AF93BF93EF93FF93E091E304F091E404E5
:10229000808182FD14C0E3EDF4E0A689B7892C911A
:1022A000818D8F5F8F73928D891771F0DF01E18DC2
:1022B000F0E0ED52FB4F258F59968C9305C0E091CD
:1022C000E904F091EA048081FF91EF91BF91AF9111
:1022D0009F918F912F910F900BBE0F900FBE0F907B
:1022E0001F9018951F920F920FB60F9211240F9303
:1022F0001F932F933F934F935F936F937F938F938E
:102300009F93AF93BF930091CB041091CC04209185
:10231000CD043091CE049091CA04B901A8014F5F59
:102320005F4F6F4F7F4F83E0890F8D3740F086E816
:10233000890FB901A8014E5F5F4F6F4F7F4F8093A8
:10234000CA044093CB045093CC046093CD047093A3
:10235000CE048091CF049091D004A091D104B0918B
:10236000D2040196A11DB11D8093CF049093D00497
:10237000A093D104B093D204BF91AF919F918F915C
:102380007F916F915F914F913F912F911F910F918D
:102390000F900FBE0F901F9018951F920F920FB6BF
:1023A0000F9211240BB60F922F933F934F935F938D
:1023B0006F937F938F939F93AF93BF93EF93FF930D
:1023C000E091B900E87FE93C08F0D6C0F0E088274A
:1023D000E451FE4E8F4FF5C1B313BC12BC12BC12B8
:1023E000BC12BC12BC12BC12B512BC12BC12BC1284
:1023F000BC12BC12BC12BC12B512BC12BC12BC1274
:10240000BC12BC12BC12BC12CF12BC12BC12BC1249
:10241000BC12BC12BC12BC12F512BC12BC12BC1213
:10242000BC12BC12BC12BC12CF12BC12BC12BC1229
:10243000BC12BC12BC12BC12FB12BC12BC12BC12ED
:10244000BC12BC12BC12BC120113BC12BC12BC12D6
:10245000BC12BC12BC12BC121313BC12BC12BC12B4
:10246000BC12BC12BC12BC123D13BC12BC12BC127A
:10247000BC12BC12BC12BC120713BC12BC12BC12A0
:10248000BC12BC12BC12BC122113BC12BC12BC1276
:10249000BC12BC12BC12BC124013BC12BC12BC1247
:1024A000BC12BC12BC12BC124013BC12BC12BC1237
:1024B000BC12BC12BC12BC124013BC12BC12BC1227
:1024C000BC12BC12BC12BC124013BC12BC12BC1217
:1024D000BC12BC12BC12BC124913BC12BC12BC12FE
:1024E000BC12BC12BC12BC127A13BC12BC12BC12BD
:1024F000BC12BC12BC12BC124913BC12BC12BC12DE
:10250000BC12BC12BC12BC127A13BC12BC12BC129C
:10251000BC12BC12BC12BC126113BC12BC12BC12A5
:10252000BC12BC12BC12BC127E13BC12BC12BC1278
:10253000BC12BC12BC12BC127E13BC12BC12BC1268
:10254000BC12BC12BC12BC129313BC12BC12BC1243
:10255000BC12BC12BC12BC12AD13BC12BC12BC1219
:10256000BC12BC12BC12BC12AD13809177048093D4
:10257000BB0081E00E94CD05FF91EF91BF91AF912B
:102580009F918F917F916F915F914F913F912F918B
:102590000F900BBE0F900FBE0F901F90189590914B
:1025A000760480917504981768F080915404811125
:1025B00019C081E08093530484EA8093BC00109298
:1025C0005204DACFE091760481E08E0F8093760496
:1025D000F0E0EB5AFB4F80818093BB0081E00E94CA
:1025E000CD05CACF0E94C305C7CF80E280935104B6
:1025F0000E94C305C1CF80E3809351040E94C305AC
:10260000BBCF88E3809351040E94BD05B5CFE09114
:10261000760481E08E0F80937604F0E08091BB0019
:10262000EB5AFB4F80839091760480917504981744
:1026300020F481E00E94CD059FCF80E00E94CD056F
:102640009BCFE091760481E08E0F80937604F0E0DA
:102650008091BB00EB5AFB4F808380915404811121
:1026600009C081E08093530484EA8093BC001092F7
:10267000520482CF0E94C3057FCF0E94C3057CCF46
:1026800083E0809352041092500481E00E94CD05B3
:1026900073CF80915004803280F4E091500481E047
:1026A0008E0F80935004F0E08091BB00E05DFB4F03
:1026B000808381E00E94CD055FCF80E00E94CD0540
:1026C0005BCF0E94BD0580915004803230F4E091D0
:1026D0005004F0E0E05DFB4F10826091500470E028
:1026E000E0912E04F0912F0480E394E0199510926C
:1026F000500442CF80E00E94CD053ECF84E080931D
:10270000520410922D0410922C04E0912A04F091AE
:102710002B04199580912C04811105C081E08093D0
:102720002C0410920A04E0912D0481E08E0F809316
:102730002D04F0E0E65FFB4F80818093BB00909119
:102740002D0480912C04981720F481E00E94CD057F
:1027500013CF80E00E94CD050FCF81E00E94CD0510
:102760001092520409CF109251040E94C30504CF65
:102770000E9467010E94FC040E9484064DCAA1E2E7
:102780001A2EAA1BBB1BFD010DC0AA1FBB1FEE1FEB
:10279000FF1FA217B307E407F50720F0A21BB30B36
:1027A000E40BF50B661F771F881F991F1A9469F7B2
:1027B00060957095809590959B01AC01BD01CF010E
:1027C0000895EE0FFF1F881F8BBF0790F691E02D35
:0627D0001994F894FFCFFC
:1027D600000040001400540056CDED4800000000F3
:1027E600720B9E0D630800000000E606B70660083F
:1027F6008C06B0069C068D0600000000D007360148
:102806006008BC05000000006D023601A001B6029A
:10281600D301B101C5010D0A00564D4450435F0076
:102826005F564D44504300436865636B206175668F
:1028360020426C6175656E204368697000426C6168
:10284600756572204368697000416C696E6120424B
:10285600617274656E737465696E00436865636B57
:102866002061756620576569C39F65204B61727448
:10287600650045696E67656C6573656E2E2E2E0064
:1028860049443A200020300047656C6573656E65E3
:10289600205549443A00426F6F74696E672E2E2E9A
:1028A600002A005246494420547565726F65666673
:1028B6006E722056302E3100476573636861666616
:1028C600742E2E2E004265726569742C004269745E
:1028D6007465204368697020766F7268616C7465F0
:1028E6006E00564D4450565F317C315F564D445014
:0428F600560A00007E
:020000023000CC
:10E000000D9489F10D94B2F10D94B2F10D94B2F129
:10E010000D94B2F10D94B2F10D94B2F10D94B2F1F0
:10E020000D94B2F10D94B2F10D94B2F10D94B2F1E0
:10E030000D94B2F10D94B2F10D94B2F10D94B2F1D0
:10E040000D94B2F10D94B2F10D94B2F10D94B2F1C0
:10E050000D94B2F10D94B2F10D94B2F10D94B2F1B0
:10E060000D94B2F10D94B2F10D94B2F10D94B2F1A0
:10E070000D94B2F10D94B2F10D94B2F10D94B2F190
:10E080000D94B2F10D94B2F10D94B2F10D94B2F180
:10E090000D94B2F10D94B2F10D94B2F10D94B2F170
:10E0A0000D94B2F10D94B2F10D94B2F10D94B2F160
:10E0B0000D94B2F10D94B2F10D94B2F10D94B2F150
:10E0C0000D94B2F10D94B2F10D94B2F10D94B2F140
:10E0D0000D94B2F10D94B2F10D94B2F10D94B2F130
:10E0E0000D94B2F141546D656761323536300041AF
:10E0F000726475696E6F206578706C6F72657220DE
:10E1000073746B3530305632206279204D4C530099
:10E11000426F6F746C6F616465723E004875683F52
:10E1200000436F6D70696C6564206F6E203D200048
:10E130004350552054797065202020203D20005FF9
:10E140005F4156525F415243485F5F3D2000415658
:10E1500052204C696243205665723D20004743437C
:10E160002056657273696F6E203D20004350552024
:10E1700049442020202020203D20004C6F7720663D
:10E18000757365202020203D20004869676820665F
:10E190007573652020203D200045787420667573D6
:10E1A00065202020203D20004C6F636B2066757336
:10E1B000652020203D20004D617220203720323024
:10E1C000313300312E362E3800342E332E350056A2
:10E1D00023202020414444522020206F7020636F70
:10E1E00064652020202020696E73747275637469E1
:10E1F0006F6E2061646472202020496E74657272B3
:10E20000757074006E6F20766563746F7200726A49
:10E210006D702020006A6D70200057686174207056
:10E220006F72743A00506F7274206E6F7420737541
:10E2300070706F72746564004D7573742062652030
:10E2400061206C6574746572002000577269747483
:10E25000696E672045450052656164696E672045B7
:10E26000450045452065727220636E743D00504F35
:10E27000525400303D5A65726F2061646472003FF1
:10E280003D43505520737461747300403D454550C3
:10E29000524F4D207465737400423D426C696E6B41
:10E2A000204C454400453D44756D70204545505215
:10E2B0004F4D00463D44756D7020464C415348001B
:10E2C000483D48656C70004C3D4C69737420492F83
:10E2D0004F20506F72747300513D51756974005234
:10E2E0003D44756D702052414D00563D73686F7707
:10E2F00020696E7465727275707420566563746FF0
:10E30000727300593D506F727420626C696E6B00BD
:10E310002A0011241FBECFEFD1E2DEBFCDBF01E046
:10E320000CBF12E0A0E0B2E0EEE1FDEF03E00BBFB6
:10E3300002C007900D92A030B107D9F712E0A0E01B
:10E34000B2E001C01D92AE30B107E1F70F9460F367
:10E350000D948DFE01E20EBF0FEF0DBF11241FBE05
:10E360000D9460F30D9400F020E030E040ED57E0B4
:10E3700005C0FA013197F1F72F5F3F4F2817390792
:10E38000C0F308959C01260F311DC901A0E0B0E043
:10E390002F5F3F4FABBFFC018791882361F08093D3
:10E3A000C6008091C00086FFFCCF8091C0008064D1
:10E3B0008093C000EACF08958DE08093C6008091DD
:10E3C000C00086FFFCCF8091C00080648093C000B5
:10E3D0008AE08093C6008091C00086FFFCCF8091C8
:10E3E000C00080648093C00008950F94C2F10F9420
:10E3F000DCF10895FC019081992359F09093C600B7
:10E400008091C00086FFFCCF8091C0008064809323
:10E41000C0003196992379F70895282F982F929567
:10E420009F70892F805D8A3308F0895F8093C600D2
:10E430008091C00086FFFCCF8091C00080648093F3
:10E44000C000822F8F70982F905D9A3308F0995FEB
:10E450009093C6008091C00086FFFCCF8091C000E1
:10E4600080648093C00008959C01FB01853691056E
:10E470001CF46330710594F0C90164E670E00F94F8
:10E480002EFE605D7F4F6093C6008091C00086FFC6
:10E49000FCCF8091C00080648093C0002B30310598
:10E4A00014F43297B4F0C90164E670E00F942EFEC4
:10E4B0006AE070E00F942EFE605D7F4F6093C600AF
:10E4C0008091C00086FFFCCF8091C0008064809363
:10E4D000C000C9016AE070E00F942EFEC0968093E0
:10E4E000C6008091C00086FFFCCF8091C000806490
:10E4F0008093C00008951F93182F8EE692EE60E07F
:10E500000F94C2F11093C6008091C00086FFFCCF2B
:10E510008091C00080648093C0000F94DCF11F9153
:10E5200008952F923F924F925F926F927F928F92B7
:10E530009F92AF92BF92CF92DF92EF92FF920F9392
:10E540001F93DF93CF93CDB7DEB762970FB6F894E2
:10E55000DEBF0FBECDBF382E622ECA01DB015C01CB
:10E560006D01772420E2222E2E010894411C511CBB
:10E570008BC081E0A81680E0B80681E0C80680E084
:10E58000D80628F0C601AA27BB270F940DF2BB2797
:10E59000AD2D9C2D8B2D0F940DF28A2D0F940DF225
:10E5A0002092C6008091C00086FFFCCF8091C00001
:10E5B00080648093C0009DE29093C6008091C0006B
:10E5C00086FFFCCF8091C00080648093C0002092C1
:10E5D000C6008091C00086FFFCCF8091C00080649F
:10E5E0008093C00019828601750188249924A1E0D6
:10E5F0003A1651F03A1620F0B2E03B1661F409C029
:10E600000BBFF701779007C0C7010F9477FE782EF4
:10E6100002C0F7017080872D0F940DF22092C60082
:10E620008091C00086FFFCCF8091C0008064809301
:10E63000C000872D8052F401EF70F0708F3520F408
:10E64000E40DF51D708204C0E40DF51D8EE280839B
:10E650000894E11CF11C011D111D0894811C911CE2
:10E6600090E18916910409F0C2CF80E190E0A0E02A
:10E67000B0E0A80EB91ECA1EDB1E198AC2010F9493
:10E68000FAF10F94DCF16A94662009F072CF629679
:10E690000FB6F894DEBF0FBECDBFCF91DF911F91B3
:10E6A0000F91FF90EF90DF90CF90BF90AF909F9031
:10E6B0008F907F906F905F904F903F902F90089534
:10E6C0002F923F924F925F926F927F928F929F9282
:10E6D000AF92BF92CF92DF92EF92FF920F931F9370
:10E6E000DF93CF93CDB7DEB7CD53D1400FB6F894BB
:10E6F000DEBF0FBECDBF01E20EBF0FEF0DBF94B75F
:10E70000F894A89514BE80916000886180936000A1
:10E7100010926000789493FF05C0E0910002F091A0
:10E7200001021995279A2F9A8091C00082608093E8
:10E73000C00080E18093C40088E18093C1000000A4
:10E74000EE24FF24870144E0A42EB12CCC24DD2448
:10E7500024C0C5010197F1F70894E11CF11C011DCB
:10E76000111D21E2E2162EE4F20620E0020720E06D
:10E77000120718F031E0C32ED12CC801B70127ECE5
:10E780003BE140E050E00F9441FE611571058105C9
:10E79000910519F485B1805885B98091C00087FD35
:10E7A00003C0C114D104A9F2A6014F5F5F4FC25E3E
:10E7B000DE4F59834883CE51D140C25EDE4F8881FF
:10E7C0009981CE51D140019711F00D9410FEC05D9A
:10E7D000DE4F19821882C053D14060E0C15DDE4F28
:10E7E0001882CF52D14088249924C35DDE4F19820C
:10E7F0001882CD52D140C05EDE4F188219821A8233
:10E800001B82C052D140CE5CDE4F188219821A8220
:10E810001B82C253D140EE24FF2487010BBFF701B6
:10E8200007911691C45CDE4F19830883CC53D14005
:10E830000D940BFEC25EDE4F28813981CE51D1404E
:10E840002130310509F52091C600C25EDE4F1982E4
:10E850001882CE51D14022C02F5F3F4F4F4F5F4FA4
:10E86000213082E138078AE7480780E0580780F0C6
:10E87000C45CDE4FE881F981CC53D140EF5FFF4F9C
:10E8800019F0EE27FF27099420E030E040E050E047
:10E890008091C00087FFE0CF2091C600C35DDE4FAE
:10E8A00048815981CD52D1404F5F5F4FC35DDE4FEC
:10E8B00059834883CD52D140213209F063C64A3092
:10E8C000510508F05FC60894811C911C53E0851621
:10E8D000910409F059C600E010E018C081E280936D
:10E8E000C6008091C00086FFFCCF8091C00080648C
:10E8F0008093C0002F5F3F4F2931310579F70F9486
:10E90000DCF10F5F1F4F0530110519F020E030E0FA
:10E91000E5CF10920A0210920B0210920C02109294
:10E920000D02109206021092070210920802109235
:10E930000902109202021092030210920402109235
:10E9400005028FEE90EE60E00F94F5F180E191EE1C
:10E9500060E00F94C2F18091C00087FFFCCF9091DE
:10E96000C600903608F09F759032B8F09093C600BC
:10E970008091C00086FFFCCF8091C00080648093AE
:10E98000C000A0E2A093C6008091C00086FFFCCF2B
:10E990008091C00080648093C000983409F4D7C18E
:10E9A0009934B8F4923409F459C1933458F490333B
:10E9B00019F1903308F4E3C59F33A1F1903409F0C5
:10E9C000DEC5BDC0953409F470C1963409F0D7C5D1
:10E9D00098C1923509F42BC2933538F49C3409F46C
:10E9E000F5C1913509F0CBC518C2963509F445C279
:10E9F000993509F0C4C567C483E792EE62E00F94CD
:10EA0000F5F110920602109207021092080210927D
:10EA1000090210920A0210920B0210920C0210923C
:10EA20000D0213C18FE792EE62E00F94F5F18FEEC5
:10EA300090EE60E00F94F5F181E291EE60E00F94CA
:10EA4000C2F187EB91EE60E00F94F5F180E391EE77
:10EA500060E00F94C2F184EE90EE60E00F94F5F167
:10EA60008FE391EE60E00F94C2F186E090E061E008
:10EA700070E00F9434F20F94DCF18DE591EE60E0DC
:10EA80000F94C2F189EC91EE60E00F94F5F18EE401
:10EA900091EE60E00F94C2F183EC91EE60E00F9490
:10EAA000F5F18CE691EE60E00F94C2F18EE10F94E7
:10EAB0000DF288E90F940DF281E00F940DF20F949E
:10EAC000DCF18BE791EE60E00F94C2F119E0E0E039
:10EAD000F0E010935700E4918E2F0F940DF20F94F5
:10EAE000DCF18AE891EE60E00F94C2F1E3E0F0E03F
:10EAF00010935700E4918E2F0F940DF20F94DCF1D8
:10EB000089E991EE60E00F94C2F1E2E0F0E0109349
:10EB10005700E4918E2F0F940DF20F94DCF188EAE8
:10EB200091EE60E00F94C2F1E1E0F0E01093570045
:10EB30001491812F0F940DF20F94DCF107CF8BE825
:10EB400092EE62E00F94F5F18BE492EE60E00F94A8
:10EB5000F5F10F94DCF100E010E019C0C8016F2D51
:10EB60000F947FFEFF2031F489E492EE60E00F9471
:10EB7000C2F10BC0F092C6008091C00086FFFCCFAE
:10EB80008091C00080648093C0000F5F1F4FC80158
:10EB900081519F41A0E0B0E0ABBFFC01F790BAE229
:10EBA000FB1621F0E2E000301E07C1F60F94DCF105
:10EBB0000F94DCF187E592EE60E00F94F5F10F948D
:10EBC000DCF1CC24DD2400E010E01EC0C8010F946D
:10EBD00077FEF82E882331F489E492EE60E00F94FA
:10EBE000C2F10BC08093C6008091C00086FFFCCFAD
:10EBF0008091C00080648093C000FE1419F00894D6
:10EC0000C11CD11C0F5F1F4FC80181519F41A0E063
:10EC1000B0E0ABBFFC01E790FAE2EF1621F022E092
:10EC20000030120799F60F94DCF10F94DCF182E6C4
:10EC300092EE60E00F94C2F1C60161E070E00F94C3
:10EC400034F20F94DCF10F94DCF110920202109276
:10EC50000302109204021092050278CE89E992EE26
:10EC600062E00F94F5F1279A2F9A16C02F9880E052
:10EC700090E0E0EDF7E03197F1F7019684369105E9
:10EC8000C1F72F9A80E090E0E0EDF7E03197F1F7DF
:10EC9000019684369105C1F78091C00087FFE6CFC9
:10ECA0008091C00087FFFCCF64C485EA92EE62E0E9
:10ECB0000F94F5F140910202509103026091040219
:10ECC0007091050281E020E10F9491F2809102029F
:10ECD00090910302A0910402B091050280509F4FD1
:10ECE000AF4FBF4F8093020290930302A0930402A0
:10ECF000B093050280509041A040B04008F426CE69
:10ED0000A4CF83EB92EE62E00F94F5F140910602FE
:10ED100050910702609108027091090280E020E1A1
:10ED20000F9491F28091060290910702A09108023F
:10ED3000B091090280509F4FAF4FBF4F80930602A2
:10ED400090930702A0930802B0930902FFCD80ECD4
:10ED500092EE62E00F94F5F183E792EE60E00F949B
:10ED6000F5F18FE792EE60E00F94F5F18BE892EE0B
:10ED700060E00F94F5F189E992EE60E00F94F5F10F
:10ED800085EA92EE60E00F94F5F183EB92EE60E09D
:10ED90000F94F5F180EC92EE60E00F94F5F187ECC2
:10EDA00092EE60E00F94F5F188ED92EE60E00F9442
:10EDB000F5F18FED92EE60E00F94F5F18AEE92EEB0
:10EDC00060E00F94F5F183E093EEBDCD87EC92EE19
:10EDD00062E00F94F5F181E40F947BF282E40F94EA
:10EDE0007BF283E40F947BF284E40F947BF285E45E
:10EDF0000F947BF286E40F947BF287E40F947BF20E
:10EE000088E40F947BF28AE40F947BF28BE40F94F6
:10EE10007BF28CE40F947BF299CD88ED92EE62E068
:10EE20000F94F5F1772473948824992409C48FED05
:10EE300092EE62E00F94F5F140910A0250910B02BC
:10EE400060910C0270910D0282E020E10F9491F22A
:10EE500080910A0290910B02A0910C02B0910D02D8
:10EE600080509F4FAF4FBF4F80930A0290930B0289
:10EE7000A0930C02B0930D0269CD8AEE92EE62E08F
:10EE80000F94F5F184EE90EE60E00F94F5F18FECC5
:10EE900091EE60E00F94F5F1662477244301CC5D98
:10EEA000DE4F19821882C452D140D401C301B695F5
:10EEB000A79597958795CA5DDE4F88839983AA8326
:10EEC000BB83C652D140CC5DDE4FA881B981C4520C
:10EED000D1401196CC5DDE4FB983A883C452D14096
:10EEE000CD0162E070E00F9434F2B0E2B093C6005E
:10EEF0008091C00086FFFCCF8091C0008064809329
:10EF0000C000EDE2E093C6008091C00086FFFCCF18
:10EF10008091C00080648093C000F0E2F093C6004E
:10EF20008091C00086FFFCCF8091C00080648093F8
:10EF3000C000CA5DDE4FE880F9800A811B81C6529D
:10EF4000D140BB27A12F902F8F2D0F940DF2CA5DBA
:10EF5000DE4F8881C652D1400F940DF2B0E2FB2EF5
:10EF6000F092C6008091C00086FFFCCF8091C00067
:10EF700080648093C0000DE30093C6008091C000C0
:10EF800086FFFCCF8091C00080648093C00010E2B7
:10EF90001093C6008091C00086FFFCCF8091C00016
:10EFA00080648093C0008BBEF3012791C65DDE4F65
:10EFB0002883CA52D140A22EBB24CC24DD2408943D
:10EFC000611C711C811C911C8BBEF3018791282E42
:10EFD0003324442455240894611C711C811C911C09
:10EFE0008BBEF3013791C55DDE4F3883CB52D140E4
:10EFF0000894611C711C811C911C8BBEF30147910C
:10F00000C45DDE4F4883CC52D140ADEFEA2EAFEF66
:10F01000FA2EAFEF0A2FAFEF1A2F6E0C7F1C801E57
:10F02000911E142D032DF22CEE24EA0CFB1C0C1D5A
:10F030001D1D0F940DF220E22093C6008091C000A8
:10F0400086FFFCCF8091C00080648093C000C65DC5
:10F05000DE4F8881CA52D1400F940DF230E23093D6
:10F06000C6008091C00086FFFCCF8091C000806404
:10F070008093C000C45DDE4F8881CC52D1400F9494
:10F080000DF240E24093C6008091C00086FFFCCFA5
:10F090008091C00080648093C000C55DDE4F888190
:10F0A000CB52D1400F940DF250E25093C6008091A4
:10F0B000C00086FFFCCF8091C00080648093C000B8
:10F0C0008FEFE8168FEFF80680E0080780E018075A
:10F0D00031F484E092EE60E00F94C2F1DFC0D80119
:10F0E000C7018070907CA070B0708050904CA040A0
:10F0F000B040D1F52FEF3FE340E050E0E222F322B1
:10F1000004231523CA5DDE4FA880B980CA80DB8046
:10F11000C652D140AE0CBF1CC01ED11EAA0CBB1CD7
:10F12000CC1CDD1C8EE092EE60E00F94C2F1BB2798
:10F13000A12F902F8F2D0F940DF28E2D0F940DF285
:10F1400030E23093C6008091C00086FFFCCF8091F2
:10F15000C00080648093C0004EE34093C60080915D
:10F16000C00086FFFCCF87C08EE09EEFA0E0B0E03D
:10F17000E822F9220A231B239CE0E91694E9F90608
:10F1800090E0090790E0190709F088C0C45DDE4FE0
:10F19000A881CC52D140EA2EFF2400E010E0102FCD
:10F1A0000F2DFE2CEE24C55DDE4FB881CB52D14031
:10F1B000EB0EF11C011D111DD601C501817090706F
:10F1C000A070B070DC0199278827E80EF91E0A1F8D
:10F1D0001B1F20EF30E040E050E0A222B322C42207
:10F1E000D52241E1AA0CBB1CCC1CDD1C4A95D1F7F1
:10F1F000EA0CFB1C0C1D1D1D81E090E0A0E0B0E0BE
:10F20000282239224A225B2235E1220C331C441C7D
:10F21000551C3A95D1F7E20CF31C041D151D57013E
:10F220006801AA0CBB1CCC1CDD1C85E192EE60E0E1
:10F230000F94C2F1C801AA27BB270F940DF2BB2778
:10F24000A12F902F8F2D0F940DF28E2D0F940DF274
:10F2500090E29093C6008091C00086FFFCCF809121
:10F26000C00080648093C000AEE3A093C60080918C
:10F27000C00086FFFCCF8091C00080648093C000F6
:10F28000C601AA27BB270F940DF2BB27AD2D9C2DDD
:10F290008B2D0F940DF28A2D0F940DF20F94DCF14B
:10F2A000CC5DDE4FE881F981C452D140F99709F471
:10F2B0004DCBF4E0EF2EF12C012D112D6E0C7F1CA7
:10F2C000801E911EF2CD83E093EE62E00F94F5F183
:10F2D0008AE192EE60E00F94C2F18091C00087FF56
:10F2E000FCCF1091C6001F751093C6008091C0001E
:10F2F00086FFFCCF8091C00080648093C0000F9493
:10F30000DCF1812F81548A3108F036C1163409F4BA
:10F3100095C0173490F4133409F44EC0143430F40B
:10F320001134F1F0123409F01DC130C0143409F465
:10F3300059C0153409F016C16BC01A3409F4C4C0A1
:10F340001B3438F4173409F48FC0183409F00AC19B
:10F35000A1C01B3409F4D2C01C3409F003C1E8C0B9
:10F360008FEF81B90DC082B1809582B980E090E0C5
:10F37000E0EDF7E03197F1F70196883C9105C1F790
:10F380008091C00087FFEFCF12B8EFC08FEF84B934
:10F390000DC085B1809585B980E090E0E0EDF7E0A3
:10F3A0003197F1F70196883C9105C1F78091C00033
:10F3B00087FFEFCF15B8D9C08FEF87B90DC088B1DF
:10F3C000809588B980E090E0E0EDF7E03197F1F7C3
:10F3D0000196883C9105C1F78091C00087FFEFCF6F
:10F3E00018B8C3C08FEF8AB90DC08BB180958BB9A7
:10F3F00080E090E0E0EDF7E03197F1F70196883C8E
:10F400009105C1F78091C00087FFEFCF1BB8ADC059
:10F410008FEF8DB90DC08EB180958EB980E090E0F0
:10F42000E0EDF7E03197F1F70196883C9105C1F7DF
:10F430008091C00087FFEFCF1EB897C08FEF80BBD1
:10F440000DC081B3809581BB80E090E0E0EDF7E0F6
:10F450003197F1F70196883C9105C1F78091C00082
:10F4600087FFEFCF11BA81C08FEF83BB0DC084B38C
:10F47000809584BB80E090E0E0EDF7E03197F1F714
:10F480000196883C9105C1F78091C00087FFEFCFBE
:10F4900014BA6BC08FEF809301010FC080910201FD
:10F4A00080958093020180E090E0E0EDF7E03197F5
:10F4B000F1F70196883C9105C1F78091C00087FF64
:10F4C000EDCF1092020151C08FEF809304010FC065
:10F4D0008091050180958093050180E090E0E0ED4A
:10F4E000F7E03197F1F70196883C9105C1F78091DB
:10F4F000C00087FFEDCF1092050137C08FEF8093DA
:10F5000007010FC08091080180958093080180E079
:10F5100090E0E0EDF7E03197F1F70196883C910536
:10F52000C1F78091C00087FFEDCF109208011DC088
:10F530008FEF80930A010FC080910B01809580931B
:10F540000B0180E090E0E0EDF7E03197F1F70196F4
:10F55000883C9105C1F78091C00087FFEDCF1092E4
:10F560000B0103C085E292EEEEC98091C00087FFD7
:10F57000FCCF8091C600EAC988E392EEE4C98CE131
:10F5800091EEE1C988249924933011F1943028F444
:10F59000913089F09230B8F408C0953061F195301F
:10F5A000F0F0963009F048C043C02B3109F042C951
:10F5B00091E06BE13FC96227C15DDE4F2883CF52E6
:10F5C000D14092E037C9B22FA0E0622793E032C960
:10F5D000822F90E0A82BB92B622794E02BC92E3004
:10F5E00009F039C3622795E0C05DDE4F19821882A9
:10F5F000C053D1401FC9E1E0F0E0EC0FFD1FC05D3A
:10F60000DE4F08811981C053D140E00FF11F2083E4
:10F610000F5F1F4FC05DDE4F19830883C053D14079
:10F6200062270A171B0709F005C9D80196E002C92D
:10F63000261709F010C303C0973009F0FBC87724E0
:10F640009981933109F412C19431C8F4963009F4C8
:10F65000D8C0973050F4923009F406C1933009F4C1
:10F660006DC0913009F059C253C0913109F477C08F
:10F67000923108F0BBC0903109F04FC2F5C098310B
:10F6800009F487C0993150F4953109F4EFC09531F0
:10F6900008F4C6C1963109F040C2C2C19A3109F4DA
:10F6A0006CC09A3108F491C09B3109F45BC09D3164
:10F6B00009F033C29D81903359F48F81882311F46E
:10F6C0009EE11CC0813011F091E018C098E916C08D
:10F6D000892F807591F0903539F4E0E0F0E089E011
:10F6E0008093570094910AC0983539F4E3E0F0E034
:10F6F00089E080935700949101C090E01A821B82A8
:10F700008D818C831D829E831F8227E030E009C299
:10F710001A8288E08B8381E48C8386E58D8382E581
:10F720008E8389E48F8383E5888780E589878FE5E9
:10F730008A8782E38B872BE030E0F3C18A818139AD
:10F7400041F0823941F0803911F48FE005C080E04A
:10F7500003C082E001C08AE01A828B8344C0772410
:10F76000739482C08D81882311F48EE12CC0813086
:10F7700011F081E028C088E926C01A82E1E0F0E0BB
:10F7800089E08093570084918B831C8224E030E0D1
:10F79000C8C18B81803589F48C81883039F4E2E0EE
:10F7A000F0E089E08093570084910DC0E0E0F0E044
:10F7B00089E080935700849106C0E3E0F0E089E09F
:10F7C0008093570084911A82DFCF8D81836C99E0FA
:10F7D000E1E0F0E0082E90935700E89507B600FCB2
:10F7E000FDCF1A821B8223E030E09BC180EC8A832C
:10F7F000CE5CDE4F188219821A821B82C253D1401E
:10F800008EC18A8190E0A0E0B0E0582F44273327D2
:10F8100022278B8190E0A0E0B0E0DC0199278827C7
:10F82000282B392B4A2B5B2B8D8190E0A0E0B0E098
:10F83000282B392B4A2B5B2B8C8190E0A0E0B0E089
:10F84000BA2FA92F982F8827282B392B4A2B5B2BCF
:10F85000220F331F441F551FC05EDE4F288339839C
:10F860004A835B83C052D1401A8259C13A81C95C34
:10F87000DE4F3883C753D140CA5CDE4F1882C6536F
:10F88000D1408B81C82EDD24CA5CDE4F488159816E
:10F89000C653D140C42AD52A933109F082C0CE5C28
:10F8A000DE4F88819981AA81BB81C253D1408050AB
:10F8B000904CA340B04030F583E0CE5CDE4FE88052
:10F8C000F9800A811B81C253D140F70100935B008C
:10F8D00080935700E89507B600FCFDCFCE5CDE4F65
:10F8E000088119812A813B81C253D14000501F4FAA
:10F8F0002F4F3F4FCE5CDE4F088319832A833B8313
:10F90000C253D140C05EDE4F488159816A817B81FC
:10F91000C052D140DE011B9631E08C9111962C91A2
:10F9200011971296C75CDE4F2883C953D140C85C3B
:10F93000DE4F1882C853D14090E0C85CDE4FE881AA
:10F94000F981C853D1408E2B9F2B0C01FA01609393
:10F950005B0030935700E89511244E5F5F4F6F4F67
:10F960007F4F0EEFE02E0FEFF02ECE0CDF1CC114F8
:10F97000D10499F685E0C05EDE4F088119812A81A5
:10F980003B81C052D140F80120935B008093570027
:10F99000E89507B600FCFDCF81E180935700E8951C
:10F9A00035C0C05EDE4F88819981AA81BB81C0527B
:10F9B000D140B695A795979587957C018601ABE0D8
:10F9C000AA2EB12CAC0EBD1E0BC0D5016D915D01F0
:10F9D000C7010F947FFE0894E11CF11C01501040F8
:10F9E0000115110591F7A60160E070E0440F551F65
:10F9F000661F771FC05EDE4FE880F9800A811B8199
:10FA0000C052D1404E0D5F1D601F711F1A82C05E33
:10FA1000DE4F488359836A837B83C052D1407FC0C5
:10FA2000FA80C55CDE4FF882CB53D140C65CDE4F16
:10FA30001882CA53D1408B81C82EDD24C65CDE4FAC
:10FA400008811981CA53D140C02AD12A1A828981DA
:10FA5000BE016D5F7F4F843121F59601C05EDE4FA0
:10FA6000E880F9800A811B81C052D1400BBFF701A9
:10FA700087919691DB018C9311969C936E5F7F4FDB
:10FA8000D801C7010296A11DB11DC05EDE4F88835B
:10FA90009983AA83BB83C052D14022503040F1F6F3
:10FAA00036C0C05EDE4F288139814A815B81C052F9
:10FAB000D1400894C108D108760100E010E0089414
:10FAC000C11CD11C0894E11CF11C011D111DE20E8A
:10FAD000F31E041F151F21BDBB27A52F942F832FB5
:10FAE00082BD2F5F3F4F4F4F5F4FF89A80B5DB01CC
:10FAF0008D93BD012E153F054007510761F7C05E8C
:10FB0000DE4F288339834A835B83C052D1409601FC
:10FB10002D5F3F4FFB01108204C080EC8A8322E0FE
:10FB200030E08BE18093C6008091C00086FFFCCF5F
:10FB30008091C00080648093C000C15DDE4FF88179
:10FB4000CF52D140F093C6008091C00086FFFCCF19
:10FB50008091C00080648093C000432F3093C60022
:10FB60008091C00086FFFCCF8091C00080648093AC
:10FB7000C000922F2093C6008091C00086FFFCCF6A
:10FB80008091C00080648093C0008EE08093C600A6
:10FB90008091C00086FFFCCF8091C000806480937C
:10FBA000C00065E1C15DDE4FE880CF52D1406E25D7
:10FBB00069276427FE01319610C090819093C6009A
:10FBC0008091C00086FFFCCF31968091C000806498
:10FBD0008093C0006927215030402115310569F715
:10FBE0006093C6008091C00086FFFCCF8091C0006A
:10FBF00080648093C00085B1805885B9772081F4F6
:10FC0000C15DDE4F0881CF52D1400F5FC15DDE4F35
:10FC10000883CF52D14090E0A0E0B0E00D941AF4F8
:10FC200027982F9880E090E020ED37E0F901319798
:10FC3000F1F7019684369105C9F700008091C00064
:10FC40008D7F8093C00081E180935700E895EE2777
:10FC5000FF270994FFCF90E00D941AF497FB092E2B
:10FC600007260AD077FD04D02ED006D000201AF443
:10FC7000709561957F4F0895F6F7909581959F4F08
:10FC80000895A1E21A2EAA1BBB1BFD010DC0AA1FDD
:10FC9000BB1FEE1FFF1FA217B307E407F50720F0F5
:10FCA000A21BB30BE40BF50B661F771F881F991F70
:10FCB0001A9469F760957095809590959B01AC01B9
:10FCC000BD01CF010895AA1BBB1B51E107C0AA1FAC
:10FCD000BB1FA617B70710F0A61BB70B881F991FED
:10FCE0005A95A9F780959095BC01CD010895F99991
:10FCF000FECF92BD81BDF89A992780B50895262F31
:10FD0000F999FECF1FBA92BD81BD20BD0FB6F89400
:0EFD1000FA9AF99A0FBE01960895F894FFCF63
:040000033000E000E9
:00000001FF